:100000000C9431030C9475030C9475030C947503D4
:100010000C9475030C9475030C9475030C94750380
:100020000C9475030C9475030C94E9260C94BB276F
:100030000C94811F0C9475030C9475030C94750338
:100040000C9475030C9475030C9475030C94750350
:100050000C9475030C94E81F0C9475030C947503B1
:100060000C9475030C9475030C9475030C94750330
:100070000C9475030C9475030C9475030C94750320
:100080000C9475030C9475030C9475030C94750310
:100090000C9475030C9475030C9475030C94750300
:1000A0000C9475030C9475030C94750305050B05EE
:1000B0000F05120516051A051E05220527052B0535
:1000C0002F05330536053A053E05420546054B0525
:1000D0002A152A1564156415A715C9153817381778
:1000E0000F163817B616B6162C17381738173317D9
:1000F000C316C316C316C316C316C316C316C31638
:10010000C316C316C316C316C316C316C316C31627
:10011000D516E516EC16F316FD16CC17CC17DF171F
:10012000DF17D517DF17DF17DF17CC17CC17DB1753
:10013000DF17DF17DB1720284728352947283529FF
:100140008F28B22835290829172907634236B79B1B
:10015000D8A71A39685618AEBAAB558C1D3CB7CC27
:100160005763BD6DEDFD753EF6177231BF0000009F
:10017000803F05A84CCDB2D44EB93836A9020C50F8
:10018000B9918688083CA6AAAA2ABE000000803F32
:1001900014001A000800150017001C0018000C00BD
:1001A0001200130004001600070009000A000B00EB
:1001B0000D000E000F002D001D001B000600190091
:1001C000050011001000360037003800E100E300A0
:1001D0009144E0002C002A002800904550004F0078
:1001E00014001A00090013000A000D000F00180087
:1001F0001C002D00040015001600170007000B005E
:10020000110008000C0012001D001B000600190060
:1002100005000E001000360037003800E100E30052
:100220009144E0002C002A002800904550004F0027
:1002300034003600370013001C0009000A000600D5
:1002400015000F0004001200080018000C00070041
:100250000B00170011001600330014000D000E00F3
:100260001B00050010001A0019001D00E100E3004A
:100270009144E0002C002A002800904550004F00D7
:1002800014001A0036003700330010001500070074
:100290001C0013000400120008000C0018000A00E3
:1002A00017000E00160011001D001B0006001900AB
:1002B000090005000B000D000F003800E100E3000D
:1002C0009144E0002C002A002800904550004F0087
:1002D00029000100010001000100010001000100EE
:1002E0000100010001000100010001000100010006
:1002F0000100010001000100680069006A006B0054
:100300006C006D006E006F00700071003A003B00E1
:1003100001003C003D003E003F0001004000410064
:100320001E001F00200021002200230024002500C1
:10033000260027001E021F022002210222022402A0
:100340003400260227022D022E0089002F023002DF
:100350002502350231023602370238023A00E20045
:1003600001002F003000330033020100310038005B
:100370000100C25CC35CC65CC55CC85CC75CCA5C8F
:10038000C95C01000100010001001D5C1E5C135CE2
:100390000A5C0100BF5CC05CDE5CDF5CE05CE35CCF
:1003A0000100010001000100010001000100010045
:1003B0000100010001000100010001000100010035
:1003C00000047F3F1F643214643214783C1E1E14F4
:1003D0000A056801F000B40078005A00000000002F
:1003E00000010101010101010101020202020202F8
:1003F00002020203030303030303030404040404CB
:10040000040505050505060606060607070707088D
:100410000808080909090A0A0A0A0B0B0B0C0C0C3C
:100420000D0D0D0E0E0F0F0F1010111111121213D2
:10043000131414151516161717181819191A1A1B4C
:100440001C1C1D1D1E1F1F202021222223242525A8
:1004500026272728292A2B2B2C2D2E2F2F303132DF
:1004600033343536363738393A3B3C3D3E3F4041F0
:10047000424344464748494A4B4C4D4F50515253D2
:10048000555657585A5B5C5E5F6062636466676985
:100490006A6C6D6E707173747678797B7C7E808106
:1004A000838486888A8B8D8F91929496989A9B9D4F
:1004B0009FA1A3A5A7A9ABADAFB1B3B5B7B9BBBD5C
:1004C000BFC1C4C6C8CACCCFD1D3D6D8DADCDFE12D
:1004D000E4E6E8EBEDF0F2F5F7FAFCFF0403300098
:1004E000000014034E0045005700470041004D0036
:1004F0004500340030000000160347006F00540030
:1005000061006B0069006700610077006100000016
:100510000403090409023B00020100A0320904009F
:10052000000103010100092111010001224000071F
:1005300005810308000A0904010001030000000905
:10054000211101000122C0000705820320000A12C8
:1005500001100100000008EDFE000001000102038F
:100560000105010902A10185020901A1000509197E
:100570000129051500250195057501810295017573
:100580000381010501093009311581257F95027527
:1005900008810609381581257F95017508810605B2
:1005A0000C0A38021581257F950175088106C0C0A7
:1005B00005010980A10185031601002603001A81A7
:1005C000002A8300751095018100C0050C0901A166
:1005D000018504160100269C021A01002A9C02755E
:1005E0001095018100C005010906A10185050507D7
:1005F00019E029E715002501950875018102050814
:10060000190129059505750191029501750391015F
:100610000507190029EF1500250195F075018102E4
:10062000C005010906A101050719E029E715002504
:100630000195087501810295017508810105081968
:100640000129059505750191029501750391010533
:1006500007190029FF150026FF009506750881007F
:10066000C00011241FBECFEFDAE0DEBFCDBF04B65D
:1006700003FE24C08091B8029091B902A091BA0201
:10068000B091BB028730904BA740B04BB9F41092A9
:10069000B8021092B9021092BA021092BB0214BEB4
:1006A00084B7877F84BF88E10FB6F8948093600099
:1006B000109260000FBEE0E0F8E3099511E0A0E0C1
:1006C000B1E0ECEFF9E502C005900D92AE32B10752
:1006D000D9F722E0AEE2B1E001C01D92A83BB2071B
:1006E000E1F70E9410240C94FC2C0C9400000C9454
:1006F000A2090F9306E025E044E00E94C3030F9196
:100700000895FB018F3D2CE5920791F020F48E3D7A
:100710009C4549F01FC0803E2CE5920771F0833E56
:100720009C4581F017C082818823A9F080E00EC02B
:100730008281882381F081E009C08281882359F079
:1007400082E004C08281882331F083E00E94B003FC
:1007500080E0089581E0089581E008950C9481037C
:10076000CF93DF93C1E0D0E002C0CC0FDD1F8A95AC
:10077000E2F78C2F0E94381EBE0180E090E0DF91EE
:10078000CF910C94D11B4F925F926F927F928F9278
:100790009F92AF92BF92CF92DF92EF92FF920F9310
:1007A0001F932B013C01C12CD12C7601C394D7019E
:1007B000C60104C0880F991FAA1FBB1F4A95D2F714
:1007C000AC01BD014601570104C0880C991CAA1C4C
:1007D000BB1C2A95D2F7482959296A297B29D701B8
:1007E000C60104C0880F991FAA1FBB1F0A95D2F724
:1007F0006A017B01C420D520E620F720C416D50667
:10080000E606F70639F4BC01CD016429752986296D
:1008100097290AC0BC01CD0160957095809590958F
:1008200064217521862197211F910F91FF90EF90F0
:10083000DF90CF90BF90AF909F908F907F906F9000
:100840005F904F9008950E94020A2FEF86E791E093
:10085000215080409040E1F700C000000E94020A51
:1008600080E00E94D10A80FF04C00E941F1E0C94E9
:100870000E2008950E9423040E94251E811102C0AB
:100880000E94981E0C9477030C94A409282F2F70B3
:1008900041F0822F90E02A3010F44D96089506978B
:1008A000089587E290E0089508950C9454040C9400
:1008B000550408950E94BA170E9459042FEF84E34B
:1008C0009CE0215080409040E1F700C0000087E7A5
:1008D00097E790930108809300080C940E20FF92F4
:1008E0000F931F93CF93DF938C01FC01C081D181C3
:1008F00080917701811113C08281882349F0CE0154
:100900000E94111DF82E682FCE010E94B71C04C052
:10091000CE010E94E51CF82EBE018F2D04C0CE0131
:100920000E94111DBE010E944207EC01B8010E9405
:10093000AE03882309F49BC2B801CE010E94DB0AF2
:10094000882309F494C2CC3CFCE5DF0741F4F801AC
:100950008281882309F48BC20E94AD0C88C2CD3CF1
:100960008CE5D80708F042C1C43C9CE5D90761F486
:10097000F8018281882309F47AC20E94E31D827201
:10098000E1F40E94C10E73C2C53CECE5DE0708F03D
:10099000EBC0C531FCE5DF0798F0C23CFCE5DF07A2
:1009A00009F4B2C008F4B8C0F8018281882309F4C0
:1009B0005EC20E94E31D827221F70E94B70E57C2E9
:1009C000C2308CE5D80708F478C0F801828188230A
:1009D00009F47FC00E94251E811102C00E94981E4A
:1009E0000E943D1E90E09093AA028093A902FE010E
:1009F000E350FC45E231F10520F4EA5AFF4F0C9434
:100A0000A12C8091A902816003C08091A90282601B
:100A10008093A9024BC08091A9028460F9CF809194
:100A2000A90213C08091A9028061F2CF8091A9022E
:100A30008062EECF8091A9028064EACF8091A90202
:100A40008068E6CF8091A90284608860E1CF8091C0
:100A5000A9028E7FDDCF8091A9028D7FD9CF8091B1
:100A6000A9028B7FD5CF8091A90213C08091A902E2
:100A70008F7ECECF8091A9028F7DCACF8091A902AF
:100A80008F7BC6CF8091A9028F77C2CF8091A902B8
:100A90008B7F877FBDCF9091A90297FB882780F934
:100AA00021E0822780FB97F99093A9028091A90207
:100AB0000E94411E0E94BA17DAC1C1159CE5D907F0
:100AC00081F0C130DC45A9F081E08093330180934F
:100AD0003401C801DF91CF911F910F91FF900C94C9
:100AE000AC03F8018281882309F4C1C10E945A0431
:100AF000BEC1F8018281882309F4B9C18091F60151
:100B000081608093F601B3C1F8018281882309F4E2
:100B1000AEC10E941F0FABC1C631DC45A9F60E94D1
:100B2000E31D382FF801228180910D0190910E0173
:100B3000222371F03A7A21E009F420E020932E017B
:100B4000222311F065E301C069E20E94071F09C07A
:100B500020912E01222311F065E301C069E20E9479
:100B6000121F0E94B01D83C1F8018281C83CFCE5C0
:100B7000DF0731F4882309F47AC10E94190E77C186
:100B8000C93C9CE5D907C8F4C63CECE5DE0731F466
:100B9000882309F46CC10E94DF0D69C1C73CDC45A4
:100BA00030F4882309F463C10E94C60D60C1882314
:100BB00009F45DC10E94FE0D5AC1CA3C9CE5D907EB
:100BC00031F4882309F453C10E944E0E50C1CB3C2E
:100BD000DC4530F4882309F44AC10E94330E47C132
:100BE000882309F444C10E94980C41C1C43DFCE52E
:100BF000DF07C1F4F8018281882309F438C10E941B
:100C00008A0C693171058105910540F00E948A0CBA
:100C1000623271058105910508F4CFCE89E10E9409
:100C2000B40E25C1C53D8CE5D80708F086C0F80193
:100C30008281C03DFCE5DF07A1F4882309F417C1D8
:100C40000E948A0C693071058105910540F00E946F
:100C50008A0C6E3071058105910508F4AECE89E0ED
:100C6000DECFC13D9CE5D907A0F5CE3CECE5DE0723
:100C7000A1F4882309F4FBC00E948A0C623071053C
:100C80008105910540F00E948A0C6530710581054F
:100C9000910508F492CE82E0C2CFCF3CDC4528F427
:100CA000882309F4E4C081E0BACF882309F4DFC0C7
:100CB0000E948A0C663071058105910540F00E9402
:100CC0008A0C683071058105910508F476CE86E0BE
:100CD000A6CFC23D9CE5D907A1F4882309F4C7C07B
:100CE0000E948A0C653171058105910540F00E94D2
:100CF0008A0C673171058105910508F45ECE85E1A6
:100D00008ECFC33DDC45A0F4882309F4B0C00E9417
:100D10008A0C6F3071058105910540F00E948A0CA4
:100D2000643171058105910508F447CE8FE077CFD6
:100D3000882309F49CC088E172CFC83DFCE5DF0739
:100D400059F5F8018281882361F0109234010E94E4
:100D5000B31F909332018093310180E20E94DA1434
:100D600086C080913401882321F080E20E94E11442
:100D70007EC080913101909132010E94BF1F883C5A
:100D8000910598F780E20E94E11488E20E94FC132A
:100D900088E20E94A6146BC0C93D8CE5D80708F014
:100DA00045C0F8018281C63DFCE5DF0709F58823CF
:100DB00051F0109233010E94B31F90933001809341
:100DC0002F0182E0CBCF8091330181110FC0809140
:100DD0002F01909130010E94BF1F883C910530F493
:100DE00086E20E94FC1386E20E94A61482E0BECF37
:100DF000C73DDC4520F48823D1F183E210CF811177
:100E0000A4CF809134018111B0CF809131019091B4
:100E100032010E94BF1F883C910508F0A6CF87E2EF
:100E20000E94FC1387E20E94A6149FCFCC3DECE504
:100E3000DE0741F4F80182818823C9F082E00E9434
:100E4000AF2415C0CD3DFCE5DF0739F4F801828100
:100E5000882369F00E94981E0AC0CB3DDC4509F04A
:100E600033CEF8018281882311F080E0E8CF80E062
:100E7000DF91CF911F910F91FF90089580E090E056
:100E8000089508959AE0799FF001112498E2899FCE
:100E9000E00DF11D1124E60FF11DEE0FFF1FE057CD
:100EA000FE4F859194910895880F991F80549C4F0F
:100EB000FC01859194910895CF93DF930E9442079E
:100EC0000E940309EC01811520E5920708F040C05B
:100ED000811530E4930708F01BC1883E910508F5A1
:100EE000803E910508F08BC1883A910578F4853AE7
:100EF000910508F09DC08130910509F480C108F486
:100F000037C18430910508F07AC132C18D3B91051B
:100F100008F499C0803C910508F42AC1805C9109CD
:100F2000E9C0C11580E2D80758F4C11591E0D9078E
:100F300008F065C1C03FD10508F41AC1D0655FC192
:100F4000C11520E3D20708F0D9C0CE019F70D2C0EE
:100F5000811535E5930708F043C0C11584E5D8072E
:100F600008F0EDC0C11592E5D90708F5C11521E5D6
:100F7000D20708F0D0C02C2F237081E090E002C08F
:100F8000880F991F2A95E2F79C689E01E4E0369548
:100F90002795EA95E1F72370922BCF70C695C695F9
:100FA00030E2C39FE0011124C82BD92B28C18C2F1C
:100FB000869586959E0123703327C115D34508F089
:100FC000AFC090E2899FE001112481E090E002C06F
:100FD000880F991F2A95E2F7C82BD92BDC680FC11F
:100FE000811529E5920780F4811538E5930708F00B
:100FF000ABC0C11586E5D80708F0BAC0CF71DD27B0
:10100000DC2FCC27D062FBC0C1159AE5D90708F4C4
:10101000A0C0CE0190568115904208F0A9C08D2F36
:101020008F710E947F09DD27D0628F71D82BE7C0B6
:10103000853A910509F49FC0863A910509F49EC04E
:10104000C3E8D0E4DCC0883A910509F49AC0893A33
:10105000910509F499C08A3A910509F498C08B3A30
:10106000910509F497C08C3A910509F496C08B3B21
:10107000910509F495C08C3B910509F494C08D3A13
:10108000910509F493C0803B910509F492C08E3A12
:10109000910509F491C08F3A910509F490C0813B04
:1010A000910509F48FC0823B910509F48EC0833B02
:1010B000910509F48DC0843B910509F48CC0853BF2
:1010C000910509F48BC0863B910509F48AC0873BE2
:1010D000910509F489C0883B910509F488C0893BD2
:1010E000910509F487C08A3B910509F086C0CAE2E0
:1010F000D6E485C00E945407EC0181C0CE01992737
:10110000D3FF03C0EC01D86C7AC0EC01D06C77C07F
:10111000DF70D06A74C0DC2FCC27C16FD06A6FC07B
:1011200090E2899FE001112481E090E002C0880FE5
:10113000991F2A95E2F7C82BD92BDA6860C0DC2FFB
:10114000CC27C46FD06A5BC0D82FCC27C06FD06AC1
:1011500056C08C2F8F70806E90E0906A34E0D695E8
:10116000C7953A95E1F7CF709C013C2BE90147C048
:10117000C0E0D0E044C0C1E8D0E441C0C2E8D0E45F
:101180003EC0C2EED4E43BC0C9EED4E438C0CAEEDF
:10119000D4E435C0C5EBD4E432C0C6EBD4E42FC0F0
:1011A000C3EBD4E42CC0C4EBD4E429C0C7EBD4E433
:1011B00026C0CCECD4E423C0CDECD4E420C0C3E8FA
:1011C000D5E41DC0CAE8D5E41AC0C2E9D5E417C009
:1011D000C4E9D5E414C0C1E2D6E411C0C3E2D6E448
:1011E0000EC0C4E2D6E40BC0C5E2D6E408C0C6E235
:1011F000D6E405C0C7E2D6E402C0C0E0D4E4CE0124
:10120000DF91CF9108958238910549F1B0F481338F
:10121000910509F459C048F48932910509F44FC089
:101220008A32910509F455C008958533910509F472
:1012300041C08933910599F00895833E910531F1BC
:1012400038F4803E910591F0823E9105A9F0089511
:10125000863E910501F1873E910539F1089520916F
:10126000A90220FD3BC021FD39C008958091A9024B
:1012700080FF34C089E341C08091A90282FF32C05F
:101280008091A90284FF2CC080E037C08091A90220
:1012900082FD28C0F5CF8091A90283FF25C08091EF
:1012A000A90284FDF1CF87EE28C08091A90283FDB9
:1012B0001BC0F5CF8091A90285FF18C019C080918D
:1012C000A90285FF15C012C08091A90286FF12C035
:1012D00013C08091A90286FF0FC00CC080EE0DC024
:1012E00083EE0BC082EE09C086EE07C085E305C021
:1012F00089E203C081E301C08AE290E00895909101
:10130000A90292FF0DC0282F2871283019F4877F79
:10131000846006C0282F2471243011F48B7F8860EC
:1013200093FF0DC0282F2871283119F4877E84611E
:1013300006C0282F2471243111F48B7E886194FD1E
:10134000877E0895089508950C94A309A0E2B1E062
:1013500021E030E08D91E82FE295EF70F0E041A1BF
:101360008F70B90102C0660F771F8A95E2F7CB0133
:10137000962F9095492341A392A1982B92A371E0B7
:10138000AA32B70739F7AAE2B1E021E030E08D9147
:10139000E82FE295EF70F0E041A18F70B90102C033
:1013A000660F771F8A95E2F7CB01962F9095492318
:1013B00041A392A1982B92A371E0AE32B70739F7FF
:1013C00010923E0110923D011092360110923501AB
:1013D0001092400110923F01109238011092370193
:1013E000109242011092410110923A01109239017B
:1013F000109244011092430110923C0110923B0163
:101400000C943A042F923F924F925F926F927F9288
:101410008F929F92AF92BF92CF92DF92EF92FF9204
:101420000F931F93CF93DF9300E211E0212C312C17
:10143000EE24E394F12C55245394E80189918E0114
:10144000E82FE295EF70F0E021A18F70A70102C0B4
:10145000440F551F8A95E2F7CA01242B21A322A12C
:10146000742E7094272122A350EA5A95F1F7670150
:10147000022C02C0CC0CDD1C0A94E2F746018094D9
:1014800090942AE231E0A5E3B1E0612C5D014D9139
:101490005C911197E90149909E01642D62956F70EE
:1014A00070E0EB0168A170E0D42DDF700D2E02C05A
:1014B000759567950A94E2F760FD04C0BA016C293E
:1014C0007D2903C0BA016821792111967C936E931E
:1014D0001296E501688179814617570711F0662455
:1014E0006394D1E02E323D0789F691A1972191A313
:1014F00092A1982B92A3662041F0509245010E9440
:10150000B31F9093470180934601EFEF2E1A3E0AD6
:10151000FAE02F16310409F090CF8091450188231D
:1015200051F180914601909147010E94BF1F06979B
:1015300010F1809135019091360190933E01809396
:101540003D01809137019091380190934001809343
:101550003F018091390190913A019093420180932B
:10156000410180913B0190913C0190934401809313
:101570004301109245010E94440481E0DF91CF9124
:101580001F910F91FF90EF90DF90CF90BF90AF90A1
:101590009F908F907F906F905F904F903F902F9093
:1015A0000895E82FF0E0EE0FFF1FE35CFE4F80810F
:1015B000918108950895CF93DF93EC01C13080E8C5
:1015C000D80770F0FB018281882351F00E94F40A51
:1015D0000E94020BCE019F770E94CA0B0E947E0BD5
:1015E00081E0DF91CF91089580914801811109C078
:1015F0008CE090E00E94B42C8093490181E08093BC
:1016000048010895E0910D01F0910E0180818093D1
:10161000250281FF03C081EE0E94A614809125025D
:1016200085FF03C085EE0E94A6148091250280FFED
:1016300003C080EE0E94A6148091250284FF03C09F
:1016400084EE0E94A6148091250282FF03C082EEE0
:101650000E94A6148091250286FF03C086EE0E9498
:10166000A6148091250283FF03C083EE0E94A61476
:101670008091250287FF03C087EE0E94A614809107
:101680004901823001F1A8F48823C9F0813079F54D
:1016900080EE0E94FC1381EE0E94FC1388E10E9400
:1016A000FC1388E10E94A61481EE0E94A61480EE2D
:1016B0001CC0843081F08530D1F486EE01C082EE0A
:1016C0000E94FC1314C082EE0E94FC1387E50E9466
:1016D000FC1387E50AC086EE0E94FC1386EE0E948A
:1016E000A61488E10E94FC1388E10E94A6148FE3EF
:1016F0009CE90197F1F700C000000895809149012D
:10170000813049F030F0823021F0853051F486EE9E
:1017100006C082EE04C08CE20E94FC138CE20E94A0
:10172000A6148091250281FF03C081EE0E94FC1364
:101730008091250285FF03C085EE0E94FC138091F5
:10174000250280FF03C080EE0E94FC1380912502D9
:1017500084FF03C084EE0E94FC138091250282FF67
:1017600003C082EE0E94FC138091250286FF03C015
:1017700086EE0E94FC138091250283FF03C083EE56
:101780000E94FC138091250287FF03C087EE0C9412
:10179000FC130895FF920F931F93CF93DF938C0157
:1017A000CCE0D0E0C8010C2E02C0969587950A9433
:1017B000E2F7282F2F70F22E822F0E9446040E94FB
:1017C000FC138F2D0E9446040E94A6142497CC3F40
:1017D0008FEFD80739F7DF91CF911F910F91FF90CD
:1017E0000895DF92EF92FF920F931F93CF93DF93B1
:1017F000433808F042E8662309F44AC0C42FD0E019
:10180000AFEFB0E0A61BB109BE01A69FE001A79F04
:10181000D00DB69FD00D1124FD2FDD2E7B01ED1ACA
:10182000F1080CE310E0B8010E94792CEB01BC0137
:10183000E69EC001E79E900DF69E900D1124B80122
:101840000E94792CC230D105B1F040F4209779F094
:10185000219709F58F2FD42E461B20C0C430D10507
:1018600099F068F02597B9F4842F861B17C08F2F45
:10187000D62EDF0E13C0862F8F0FD42E03C0D42E8A
:10188000D61A842F4F2F0AC0842F462F4F0F06C021
:10189000842FD42E03C080E0D12C40E0E42FF0E070
:1018A000E452FC4F4491ED2DF0E0E452FC4F949152
:1018B000E82FF0E0E452FC4FE491D90111964C93EB
:1018C00011979C931296EC93DF91CF911F910F91FA
:1018D000FF90EF90DF90089588E090E00C94BC2C8E
:1018E000AB01BC0188E090E00C94DA2CE6E2F2E077
:1018F00083E08083109227028FEF8093280282E892
:101900008093290210922A026081718182819381E1
:101910000C94700C6091260260FF06C066956F7390
:1019200070E080E090E0089560E070E0CB01089501
:1019300080912A0290E001968430910514F083E0B2
:1019400090E080932A026091260270912702809194
:101950002802909129020C94700C80912A0290E048
:10196000019797FF02C080E090E08430910514F069
:1019700083E090E080932A02609126027091270212
:1019800080912802909129020C94700C809126027B
:1019900080FF06C068E270E08BE292E00C948C124B
:1019A000EDE2F2E0DF0111971C9211971C92108278
:1019B000339682E0E53AF807A9F7ECCF909126023A
:1019C00090FF0FC0EDE2F2E0DF0111978C931197C9
:1019D0006C934083339692E0E53AF907A9F70C94AB
:1019E000C60C0895CF93DF9300D01F92CDB7DEB71A
:1019F0002091260220FF0AC09E012F5F3F4F0E94C8
:101A0000F10B4B8169818A810E94DE0C0F900F904F
:101A10000F90DF91CF9108955F926F927F928F9296
:101A20009F92AF92BF92CF92DF92EF92FF920F936D
:101A30001F93CF93DF9300D01F92CDB7DEB78C01F9
:101A4000662E742E522E8091260280FF89C0982F18
:101A50009E77923061F49E012F5F3F4FC8010E9434
:101A6000F10B4B8169818A810E94DE0C59C0E82FFD
:101A7000E695EF739EE39E0F9F73943018F4709079
:101A800029024EC09AE39E0F9F73993068F4881F15
:101A90008827881F90912702292F220F022F082BB9
:101AA00097FB112710F93CC087E28E0F8F738A30A5
:101AB000B8F5F0E07997E0FF02C02FEF01C021E018
:101AC000EE7FEE52FC4F8591949168E270E00E94A7
:101AD000792C26035001279FB00C1124680188E956
:101AE000C81A8EEFD80A8BE2E82E82E0F82E98E62C
:101AF000892E99249394C601B4010E94792C9701F0
:101B0000472D662D0E94F10BCA0CDB1C83E0E80E0A
:101B1000F11C83EAE81682E0F80669F70E94C60C19
:101B20008091260200FB87F980932602902F9695DC
:101B3000809127028078892B10FB87F980932702F8
:101B40006092280270922902552051F0609126027D
:101B50007091270280912802909129020E94700CB6
:101B60000F900F900F90DF91CF911F910F91FF90E9
:101B7000EF90DF90CF90BF90AF909F908F907F902D
:101B80006F905F90089521E00C940C0D2091260237
:101B9000221F2227221F30912702432F440F842F18
:101BA000822B37FB992790F90A9668E671E00E942C
:101BB0008D2C40912902609128020C94C30D209134
:101BC0002602221F2227221F30912702432F440F73
:101BD000842F822B37FB992790F98A3091051CF4CA
:101BE000825A9E4F01C00A9768E671E00E948D2CD0
:101BF00040912902609128020C94C30D6091280243
:101C0000862F90E08F3E910514F46F5E01C06FEF58
:101C100080912602881F8827881F90912702292FEC
:101C2000220F97FB992790F940912902822B0C945F
:101C3000C30D60912802862F90E0419714F0615106
:101C400001C060E080912602881F8827881F90913C
:101C50002702292F220F97FB992790F940912902FB
:101C6000822B0C94C30D40912902842F90E082377F
:101C7000910514F44F5E01C042E880912602881F4E
:101C80008827881F90912702292F220F97FB9927D9
:101C900090F960912802822B0C94C30D4091290287
:101CA000842F90E0419714F0415101C040E08091B1
:101CB0002602881F8827881F90912702292F220F2C
:101CC00097FB992790F960912802822B0C94C30D01
:101CD00020E00C940C0DCF939091260290FF42C00F
:101CE0009178811102C0926003C0853220F098641F
:101CF0009093260205C08F73880F892B809326024C
:101D0000662351F06091260270912702809128028B
:101D1000909129020E94700CC09126026C2F66954A
:101D20006F7370E04BE050E082E091E00E94A72CDE
:101D3000892B19F01092670103C081E0809367013D
:101D4000CC1FCC27CC1F90912702892F880F97FB9F
:101D5000992790F940912902609128028C2BCF910C
:101D60000C94680ECF91089561E00C946B0E8091F5
:101D7000260286958F738F5F853208F081E00C9480
:101D8000B40E8091260286958F73815009F484E207
:101D90000C94B40EE6E2F2E0808181608083869547
:101DA0008F730C94B40E60E00C946B0E8091F6016E
:101DB00081608093F6010E94251E811104C00E945B
:101DC000981E0E94760C0E946C0C60932602709301
:101DD000270280932802909329026E7761F40E9473
:101DE000760C0E946C0C60932602709327028093FD
:101DF00028029093290281E0809367018091260256
:101E000080FF04C086958F730C94D30E0895E6E28C
:101E1000F2E080818E7F80836081718182819381F5
:101E20000E94700C109267012FEF80E792E0215022
:101E300080409040E1F700C000000C94C60C8091F7
:101E4000260280FD0C94070F0C94CA0ECF93C82F66
:101E500080916501909166010E94BF1FEC2FF0E018
:101E6000E253FC4FE491F0E08E179F0708F442C064
:101E70000E94B31F90936601809365016091640195
:101E800070E080E090E00E94972A20E030E04FE789
:101E900053E40E94D0292BED3FE049E450E40E9436
:101EA000B82B0E941B2C0E943D2A2BE43AE34EE201
:101EB0005FE30E946B2920EF3BEF48ED52E40E9464
:101EC000B82B0E94692A462F80912602881F8827F6
:101ED000881F90912702292F220F97FB992790F9AD
:101EE00060912802822B0E94F20C809164018F5F26
:101EF00080936401CF910895CF93C82F80916201A0
:101F0000909163010E94BF1FEC2FF0E0E553FC4F5E
:101F1000E491F0E08E179F07E8F00E94B31F9093C2
:101F200063018093620140912902609128028091AF
:101F30006001909161010E94F20C8091600190918A
:101F40006101019668E671E00E94792C909361012D
:101F500080936001CF910895DF92EF92FF920F93EB
:101F60001F93CF93DF93D82E80915E0190915F01F4
:101F70000E94BF1FED2DE695F0E0E853FC4FE49181
:101F8000F0E08E179F07E8F10E94B31F90935F0166
:101F900080935E010BE212E0C0E0D0E068E6E62E3E
:101FA000FF24F39480915C0190915D018C0F9D1F43
:101FB000B7010E94792C9801409129026091280272
:101FC0000E94F10B29960D5F1F4FC83681E0D8079C
:101FD00049F70E94C60C20915C0130915D01D0FE52
:101FE0000AC0C9010196BE010E94792C90935D013F
:101FF00080935C0106C02150310930935D0120932C
:102000005C01DF91CF911F910F91FF90EF90DF90D6
:102010000895AF92BF92CF92DF92EF92FF920F930B
:102020001F93CF93DF93C82F80FD03C0BB24B394CD
:1020300002C0BB24BA9480915A0190915B010E9426
:10204000BF1FC695EC2FF0E0EB53FC4FE491F0E09E
:102050008E179F0708F466C00E94B31F90935B0120
:1020600080935A01FBE2EF2EF2E0FF2E0DE212E028
:10207000C0E0D0E0F80131971082F7011082F8013A
:102080001082E4E0CE2ED12CA12C809159018A0D32
:1020900087FD885D992787FD9095C817D907E9F4D2
:1020A000809129028C9DA0018D9D500D1124559584
:1020B00047955595479580912602881F8827881F48
:1020C00090912702592F550F97FB992790F9970167
:1020D00060912802852B0E94F10BAB0CF1E0CF1A26
:1020E000D108C114D10489F6219683E0E80EF11CD1
:1020F0000D5F1F4FC832D10509F0BCCF0E94C60C3E
:102100008091590191E0B91206C0811102C087E2A5
:1021100007C0815005C090E00196BE010E948D2C41
:1021200080935901DF91CF911F910F91FF90EF9014
:10213000DF90CF90BF90AF9008950F931F93CF93F0
:10214000DF93C82F80915701909158010E94BF1FC3
:10215000EC2FF0E0EE53FC4FE491F0E08E179F0778
:1021600008F467C00E94B31F9093580180935701F1
:10217000EDE2F2E0DF0111971C9211971C921082A0
:10218000339682E0E53AF807A9F7C0E0D0E008E22C
:1021900010E0CE01B8010E948D2C2091560133270A
:1021A00027FD3095FC01EE0FFF1FC217D3070CF17E
:1021B00020910101332727FD30952C173D07CCF0E6
:1021C0009F01280F391F255D3D4F80912602881FF2
:1021D0008827881F90912702592F550F97FB992721
:1021E00090F94091290260912802852B0E94F10B01
:1021F00007C0E80FF91FE55DFD4F118210821282C2
:102200002196C832D10529F60E94C60C2091000102
:1022100080915601820F8093560190910101920F97
:1022200090930101191614F487321CF02195209324
:102230000001DF91CF911F910F910895EF92FF92CE
:102240000F931F93CF93DF93809154019091550189
:102250000E94BF1F883E9340C8F10E94B31F909315
:10226000550180935401C0915201D09153012196A0
:10227000C170DD27D0935301C09352010BE212E0ED
:10228000F12CB8E7EB2E8F2D8695FE01E80FF11D9E
:10229000CF0181709927980140912902609128020D
:1022A000FC01EE9EC001EF9E900D11240E94F10BE7
:1022B000F3940D5F1F4FF8E2FF12E5CFDF91CF914E
:1022C0001F910F91FF90EF900C94C60CDF91CF916E
:1022D0001F910F91FF90EF900895CF93DF9300D05F
:1022E0001F92CDB7DEB780915001909151010E94AD
:1022F000BF1FE0ECF3E02591349182179307C0F102
:1023000080914F0181110CC09E012F5F3F4F42E829
:102310006FEF80E090E00E94F10B8A8180934F0183
:102320000E94B31F909351018093500180914E0100
:10233000813051F028F0823061F440914F010AC0A1
:1023400080914F0140E007C060914F0140E080E084
:1023500003C040E080E060E00E94DE0C80914E010E
:1023600090E0019663E070E00E948D2C80934E0116
:102370000F900F900F90DF91CF9108950F931F93BF
:10238000CF93DF9380914C0190914D010E94BF1F2C
:10239000843F914008F448C00E94B31F90934D01C0
:1023A00080934C01CBE2D2E000E010E020914A01A2
:1023B00030914B0180912602909127020431110542
:1023C0001CF4232B79F002C0232B61F4881F88278B
:1023D000881F592F550F97FB992790F99E0140911F
:1023E00029020AC0881F8827881F592F550F97FB7D
:1023F000992790F99E0140E060912802852B0E9468
:10240000F10B0F5F1F4F23960832110579F60E94DA
:10241000C60C80914A0190914B01019681709927D9
:1024200090934B0180934A01DF91CF911F910F91BF
:102430000895809167018823D9F120912602822F87
:1024400086958F739EE3980F9F73943018F4825093
:102450000C94260F9AE3980F9F73933018F48650CC
:102460000C947C0F97E3980F9F73963018F4895063
:102470000C94AC0F91E3980F9F73963018F48F5023
:102480000C9409109BE2980F9F73933018F48551B8
:102490000C949D10822F8E77803311F40C941E11B2
:1024A000863411F40C946D11883411F40C94BE111F
:1024B000089531B3242F2095232331B3342B4FB704
:1024C000F894FC01680F791FE617F70789F08191EE
:1024D00098E031BB000000C087FF21BB880F0000DF
:1024E00000C000C000C021BB00C09A9591F7ECCF9E
:1024F0004FBF089520B3242B20BB9B01220F331F15
:10250000260F371FB9010E94591287EC90E00197FE
:10251000F1F700C00000089540E20C947A12909305
:102520006D0180936C010895E0916C01F0916D0153
:10253000309721F00190F081E02D099480E008951A
:10254000E0916C01F0916D01309799F020911F019D
:10255000222359F02091A90227FF07C0DC012C910A
:1025600011962C93119725E02C930280F381E02D96
:1025700009940895E0916C01F0916D01309739F064
:1025800022E0DC012C930480F581E02D099408956C
:1025900020916A0130916B018217930771F090933B
:1025A0006B0180936A01E0916C01F0916D013097AD
:1025B00021F00680F781E02D0994089520916801AB
:1025C000309169018217930771F0909369018093AC
:1025D0006801E0916C01F0916D01309721F0008469
:1025E000F185E02D0994089585B7806885BF85B78A
:1025F000806885BF089508950E94F4120C94FB1220
:1026000081E008950E94AA1F0E94A6090E9420202E
:102610000C94D60E5F926F927F928F929F92AF92A0
:10262000BF92CF92DF92EF92FF920F931F93CF93BF
:10263000DF93CDB7DEB72A970FB6F894DEBF0FBE93
:10264000CDBF0E94020A0E940013811111C08FEFBA
:1026500089838A831B820E94B31F8160782F9D83A8
:102660008C8349815A816B818D810E94C81357C028
:102670009FE6C92E91E0D92E00E010E0AA24A39491
:10268000B12C502E802F0E94D10A3C01F601E1901E
:10269000F1906F01E826F926E114F10431F40F5F9F
:1026A0001F4F0430110569F7D2CF8091F60181FDEB
:1026B0000E94DA0A20E030E04501022E02C0880CB8
:1026C000991C0A94E2F7C4018E219F21892B09F1FC
:1026D0002E835F826820792081E0672809F480E0FA
:1026E00088870E94B31F8160782F9A8789874E81DF
:1026F0005F8168858A850E94C813F801EE0FFF1F6D
:10270000E159FE4F808191818825992591838083AD
:1027100006C02F5F3F4F2A30310571F6C0CF0E94AF
:10272000B22110916E010E9494121817D9F00E94E4
:10273000941280936E012A960FB6F894DEBF0FBEF6
:10274000CDBFDF91CF911F910F91FF90EF90DF9060
:10275000CF90BF90AF909F908F907F906F905F9041
:102760000C9457042A960FB6F894DEBF0FBECDBF67
:10277000DF91CF911F910F91FF90EF90DF90CF905D
:10278000BF90AF909F908F907F906F905F900895D3
:10279000CF93DF93CDB7DEB72B970FB6F894DEBF9C
:1027A0000FBECDBF4F83588769877A878B87DE013D
:1027B000119686E0FD0111928A95E9F785E0FE0108
:1027C000379601900D928A95E1F749815A816B8184
:1027D0007C818D819E810E94941A2B960FB6F8946D
:1027E000DEBF0FBECDBFDF91CF910895FC01808188
:1027F00091810E94511D0895882309F4A6C09CEF81
:10280000980F913A40F4682F80910D0190910E013C
:102810000E94071F0DC090E2980F983058F48770FF
:1028200091E001C0990F8A95EAF7892F0E94E61D71
:102830000C94B01D9BE5980F933070F4853A29F005
:10284000863A31F482E890E005C081E890E002C069
:1028500083E890E00C94C81298E5980F953108F041
:102860006EC0883A61F1893A69F18A3A71F18B3A1E
:1028700079F18C3A81F18B3B89F18C3B91F18D3A66
:1028800099F1803BA1F18E3AA9F18F3AB1F1813BE8
:10289000B9F1823BC1F1833BC9F1843BD1F1853B66
:1028A000D9F1863BE1F1873BE9F1883BF1F1893BC6
:1028B000F9F18A3B09F03FC08AE292E03EC082EE25
:1028C00090E03BC089EE90E038C08AEE90E035C0E1
:1028D00085EB90E032C086EB90E02FC083EB90E078
:1028E0002CC084EB90E029C087EB90E026C08CECF4
:1028F00090E023C08DEC90E020C083E891E01DC003
:102900008AE891E01AC082E991E017C084E991E079
:1029100014C081E292E011C083E292E00EC084E232
:1029200092E00BC085E292E008C086E292E005C02A
:1029300087E292E002C080E090E00C94DE12803FDB
:1029400020F00E94BA200C94A7210895882389F1D1
:102950009CEF980F913A40F4682F80910D0190916F
:102960000E010E94121F0DC090E2980F983058F48B
:10297000877091E001C0990F8A95EAF7892F0E942C
:10298000EC1D0C94B01D9BE5980F933020F480E073
:1029900090E00C94C81298E5980F953120F480E0EF
:1029A00090E00C94DE12803F20F00E9422210C94D3
:1029B000A7210895882321F00E94E61D0C94B01DE4
:1029C0000895882321F00E94EC1D0C94B01D0895F9
:1029D0008F929F92BF92CF92DF92EF92FF920F93CE
:1029E0001F93CF93DF9300D0CDB7DEB74C01472FB5
:1029F000FC01C580C2949FE0C922D280DD2031F065
:102A000079836A830E94031E6A81498149836A83AC
:102A10000E94A91D49816A81882389F0DD2079F00F
:102A200080E2860F883058F082E00E94921D0E945A
:102A3000A91DBB24B394B82649816A8101C0B12C79
:102A4000E42EE2948FE0E822F12CF701E859FF4FE1
:102A50000C94A12C842F807F142F1F70882311F0D9
:102A60001295107FDD20C1F0112309F4E0C180E24E
:102A7000860F883010F0611105C0812F6A830E9493
:102A8000E61D04C0812F6A830E94F61D6A816A8355
:102A90000E94B01D6A81CBC1862F6A830E94A61452
:102AA0006A81112309F4E4C180E2860F883010F0B6
:102AB000611104C0812F0E94EC1D03C0812F0E9470
:102AC000FC1D0E94B01DD4C1842F807F142F1F7065
:102AD000803211F01295107F662319F06130D9F021
:102AE00026C0DD2079F0CC2049F0F1E0CF1206C0FD
:102AF0000E941C1E812B0E94161EBAC10E941C1E21
:102B0000812B4AC1CC2021F021E0C21609F4B0C1CA
:102B10000E94191E46C1DD2029F085E08C1508F4BD
:102B2000A7C139C194E09C1508F4A2C13AC1DD20C7
:102B300051F0CC2009F42FC1F401858180FF77C1C9
:102B40008F70858328C1CC2009F42BC181C1242F2B
:102B500026952695237030E02115310521F021308E
:102B6000310561F085C1DD2021F0862F942F93700F
:102B700002C080E090E00E94C8128AC1DD2021F0EE
:102B8000862F942F937002C080E090E00E94DE12A6
:102B90007FC1DD20F9F0653F51F0663F71F0643F81
:102BA000A9F48091A3029091A40281600BC080914E
:102BB000A3029091A402826005C08091A30290912B
:102BC000A40284609093A4028093A302862F0E94A3
:102BD000BA2022C0653F51F0663F91F0643FC9F4CE
:102BE0008091A3029091A4028E7F05C08091A302E0
:102BF0009091A4028D7F9093A4028093A30209C0B8
:102C00002091A3023091A4022B7F3093A402209341
:102C1000A302862F0E9422210E94A72139C1842F5E
:102C2000837009F04EC0D1102FC1262F2295269512
:102C30002770220F220F862F8F70C82ED12CE12CE7
:102C4000F12C022E04C0CC0CDD1CEE1CFF1C0A94DF
:102C5000D2F764FF10C06FE070E080E090E004C045
:102C6000660F771F881F991F2A95D2F76095709578
:102C70008095909503C060E070E0CB01242F2695ED
:102C80002695237030E02230310569F0233031057C
:102C900089F06C297D298E299F292130310571F019
:102CA0000E94E51BF1C06C297D298E299F290E9475
:102CB000F71BEAC00E94E51BC701B6010E94D31BA7
:102CC000E3C0DD2019F0842F817001C08695882330
:102CD00009F4DAC0262F229526952770220F220F9D
:102CE000862F8F70C82ED12CE12CF12C022E04C01F
:102CF000CC0CDD1CEE1CFF1C0A94D2F764FF10C044
:102D00006FE070E080E090E004C0660F771F881FDE
:102D1000991F2A95D2F7609570958095909503C07C
:102D200060E070E0CB01242F26952695237030E0DB
:102D30002230310569F02330310589F06C297D2975
:102D40008E299F292130310571F00E94921C9CC070
:102D50006C297D298E299F290E94A41C95C00E9460
:102D6000921CC701B6010E94801C8EC0062F10E085
:102D7000F801E05EF109E531F10508F054C0E858CA
:102D8000FF4F0C94A12C162F1F70842F8F71DD2004
:102D900031F00E942B1C812F0E94DA1469C00E941E
:102DA000461C812F0E94E11463C0DD2049F0F4E04D
:102DB000FC1508F45DC0842F8F710E94651C58C0FB
:102DC00025E02C1508F454C0F6CFDD2039F0842F0F
:102DD0008F710E942B1C4CC0DD20C9F3842F8F7192
:102DE0000E94461C45C0DD2029F0842F8F710E946F
:102DF0001C1C3EC00E94171C3BC0DD2051F0142F4C
:102E00001F71812F0E942B1C63E0812F0E94891D5E
:102E10002FC081E00E94921D81E08C1548F582E070
:102E20000E94921D25C0DD2031F0CC2081F2862F3A
:102E30000E94FC131DC0CC2089F2693349F49FEF36
:102E4000E7EEF3E09150E040F040E1F700C0000011
:102E5000862F0E94A6140CC04F70C4010E943E072A
:102E60000E94411B15C04F70C4010E94410710C051
:102E700028E0E216F10441F05CF09AE0E91AF1086A
:102E8000E2E0EE16F10420F40E9494120E9457042E
:102E9000BB20F1F00E94851D80FD1AC0F401128252
:102EA0000E947F1D0E942B1CC4010E9476170E9465
:102EB0007F1D0F900F90DF91CF911F910F91FF9089
:102EC000EF90DF90CF90BF909F908F900C94461C16
:102ED0000F900F90DF91CF911F910F91FF90EF9086
:102EE000DF90CF90BF909F908F9008950F931F9386
:102EF000CF93DF93EC01288139818B819C81892BD1
:102F000031F03F3F11F080E003C02F3FE1F781E057
:102F1000811113C0CE010E946F04882371F0688173
:102F200079818A810E945C1D8C010E94B61C0E94DE
:102F3000D01BB801CE010E94E814DF91CF911F9100
:102F40000F9108950E94031E0E94131E80910D018F
:102F500090910E010E941D1F0E94B01D0E944622EA
:102F60000E94A72180E090E00E94C81280E090E0DB
:102F70000C94DE120E94F31D0C94A2170E94511DA6
:102F8000E92FE295EF70F0E03297EE30F105B8F4FA
:102F9000E357FF4F0C94A12C803F59F018F4803E6A
:102FA00070F407C0843F59F404C0803E10F0813FA4
:102FB00031F481E0089593FB882780F9089580E03B
:102FC0000895CF93DF9300D000D01F92CDB7DEB726
:102FD0000F900F900F900F900F90DF91CF91089569
:102FE000CF93DF9300D000D000D0CDB7DEB72696C8
:102FF0000FB6F894DEBF0FBECDBFDF91CF9108951D
:103000001F93CF93DF93C091780116E080917901EF
:10301000C81799F0D0E01C9FF0011D9FF00D1124FE
:10302000E658FE4F40815181628173818481958190
:103030000E94F0172196C770E9CFDF91CF911F91C1
:1030400008954091AA015091AB016091AC0170913B
:10305000AD018091AE019091AF010C94F017CF9328
:103060008091AF0182958F7009F05FC08091AC01B3
:10307000882309F45AC020917801A09179016091C8
:10308000AA017091AB018091AD019091AE0131E048
:103090006F3F09F030E0B32FC6E02A1709F445C0AE
:1030A000009721F07F3F21F44B2F03C041E001C086
:1030B00040E030E040FD35C0C29FF001C39FF00DFD
:1030C0001124E658FE4F418174132BC040816413D4
:1030D00028C04281411125C04381548148175907B6
:1030E00010F441505109481B590B483C5105C8F494
:1030F0008091AF018F7080618093AF0186E0829FE5
:10310000F001839FF00D1124E158FE4F80818F70F4
:10311000806180838AEA91E00E947617CF910C94B7
:1031200000182F5F3F4F2770B8CFCF910895CF92EF
:10313000DF92EF92FF920F931F93CF93DF93CDB760
:10314000DEB762970FB6F894DEBF0FBECDBF8C011D
:1031500085E0F801DE011D9601900D928A95E1F758
:10316000D8014C9111965C91119712966C9112971F
:103170001396ED90FC9014977091AA01E091AB0129
:103180002091AD013091AE012115310531F0EF3FB5
:1031900031F481E07F3F19F403C081E001C080E099
:1031A000B82FB170CB2E80FD6BC1D090AC01DD206B
:1031B00009F4F5C0F091AF01E216F30638F0C7014B
:1031C000821B930B883C910548F09DC0209530955B
:1031D0002E0D3F1D283C310508F095C08F2F807FB4
:1031E00009F052C0E51314C0741312C0D62E611139
:1031F0000FC0FF70F061F093AF010E9421188AEABE
:1032000091E00E9476178091AF01F80185837CC11F
:10321000EF2831F05F3F31F481E04F3F19F403C0F4
:1032200081E001C080E080FD03C081E0862701C00D
:1032300080E0F82FF170FF2E80FF1CC08091780194
:103240002091790136E0821709F438C190E0389F67
:10325000F001399FF00D1124E658FE4F718157138C
:1032600006C07081471303C07281671303C00196C3
:103270008770E9CFD62E662309F446C18091AF014D
:1032800081608093AF0155C0E51308C0741306C078
:10329000611104C0D8011596FC93AEC04D875E87BE
:1032A0008D859E856A8B0E94BE176A89882329F1C5
:1032B000D62E662311F12091AF01822F82958F7057
:1032C00090E002970CF462C08091AA019091AB014A
:1032D00098878F831986FB86EA862C87CE0107960E
:1032E00053C0E51741F14D875E878D859E856A8BBA
:1032F0000E94BE176A89811130C0C8010E947617EA
:10330000DD24D39401C18F2F807F59F77E2DF98A58
:10331000E88A89890E94E1178AEA91E00E9476177B
:10332000EAEAF1E086E0DF011D928A95E9F70E9462
:103330002118D12CE9C07413D6CF6111D4CFD80194
:103340001596FC93C8010E947617EAEAF1E086E040
:10335000DF011D928A95E9F7D7C0D62E662369F260
:103360002091AF01822F82958F7090E0029774F0C8
:103370008091AA019091AB019A8389831B82FD827F
:10338000EC822E83CE0101960E94761786E0F8012A
:10339000AAEAB1E001900D928A95E1F78AC0E2169F
:1033A000F30628F0C701821B930B9C0104C02095F3
:1033B00030952E0D3F1D283C310508F053C0D62E08
:1033C000662309F49ACFE5132CC074132AC08091A8
:1033D000AF0180FD1DC0982F92959F70C9F0D80154
:1033E00015968C9315979F3039F09F5F9295907F3B
:1033F0008F70892B15968C93C8010E94761786E0F2
:10340000F801AAEAB1E001900D928A95E1F753C064
:1034100086E0F801AAEAB1E001900D928A95E1F701
:1034200073C04D875E878D859E850E94BE17882359
:1034300081F096E0F801AAEAB1E001900D929A9528
:10344000E1F78A8B0E942F180E9421188A89D82EB2
:103450005BC08091AF0181608093AF01C8010E9481
:10346000761752C07E2DF98AE88A89890E94E11771
:10347000EAEAF1E086E0DF011D928A95E9F71BC0D8
:10348000662309F43ACF4D875E878D859E850E941D
:10349000BE17D82E882309F430CF86E0F801AAEAB7
:1034A000B1E001900D928A95E1F78AEA91E00E94DD
:1034B000F6130E942F180E94211826C04D875E87A0
:1034C0008D859E850E94511D292F22952F7030E0F9
:1034D000223031052CF49F7041F0811106C00CC0E0
:1034E000243031052CF49F7049F4805E883020F040
:1034F000C8010E947617CF2CDC2C06C0D801159687
:103500009C91907F91F7F8CF8D2D62960FB6F8942D
:10351000DEBF0FBECDBFDF91CF911F910F91FF9006
:10352000EF90DF90CF9008951F93CF93DF93CDB7A7
:10353000DEB72C970FB6F894DEBF0FBECDBF4F831A
:10354000588769877A878B879C87CE0107960E9468
:1035500097188823C1F02F8138858A859B85892B10
:1035600031F03F3F11F080E003C02F3FE1F781E0F1
:10357000811147C04F81588569857A858B859C85E7
:103580000E94F0173EC086E0FE013796DE011196DC
:1035900001900D928A95E1F7FF81E8854A855B8568
:1035A0004115510531F0EF3F31F481E0FF3F19F44F
:1035B00003C081E001C080E080FD23C0209179013B
:1035C00030E0C9010196877099276091780170E019
:1035D00086179707F1F1F983EA835D834C8396E0C0
:1035E000929FD001939FB00D1124A658BE4FFE01AB
:1035F000319601900D929A95E1F7809379010E949E
:10360000001816E08091780190917901891779F17D
:10361000189FC001112486589E4F0E949718882336
:1036200031F1E09178011E9FF0011124E658FE4F20
:103630004081518162817381848195810E94F0175C
:103640008091780190E001968770992780937801A6
:10365000D9CF0E94BA171092790110927801EAEA44
:10366000F1E086E0DF011D928A95E9F7CACF2C963A
:103670000FB6F894DEBF0FBECDBFDF91CF911F9183
:103680000895EF92FF920F931F93CF93DF93FC0166
:10369000009709F46FC0F12CEE24E394EF0121961A
:1036A0008491843740F4843008F055C0813081F033
:1036B000823021F15FC0853709F447C0C0F19CE733
:1036C000980F903708F056C08F770E94A61445C017
:1036D0008F010E5F1F4FFE01849190E2980F98308A
:1036E00050F48770FE2D01C0FF0F8A95EAF78F2FE7
:1036F0000E94061E15C00E94FC1314C08F010E5FAD
:103700001F4FFE01849190E2980F983068F4877003
:10371000FE2D01C0FF0F8A95EAF78F2F0E940C1E25
:103720000E94B01DE80119C00E94A614FBCFCF0172
:103730000296FE01C491CC2361F0EFE9FFE03197DE
:10374000F1F700C00000C150F6CFCF010296FE0194
:10375000F490EC0102C00E94FC138F2D882341F0ED
:10376000EFE9FFE03197F1F700C000008150F6CF9C
:10377000FE0194CFDF91CF911F910F91FF90EF90B9
:10378000089508950C94C11B0E94C21B6093CD0143
:103790007093CE018093CF019093D0010C94A21727
:1037A00008950C94C41B0F931F930091CD011091A9
:1037B000CE012091CF013091D001602B712B822B53
:1037C000932B1F910F910C94C41B0F931F93009187
:1037D000CD011091CE012091CF013091D001602315
:1037E0007123822393231F910F910C94C41B0F9379
:1037F0001F930091CD011091CE012091CF01309106
:10380000D00160277127822793271F910F910C9475
:10381000C41B0C9479030E94091C6093C901709326
:10382000CA018093CB019093CC010C94A21760E065
:1038300070E0CB010C940B1C41E050E060E070E0C4
:1038400004C0440F551F661F771F8A95D2F7CB011E
:10385000BA010C940B1C41E050E060E070E004C041
:10386000440F551F661F771F8A95D2F78091C901B3
:103870009091CA01A091CB01B091CC01482B592B5A
:103880006A2B7B2BCB01BA010C940B1C41E050E05E
:1038900060E070E004C0440F551F661F771F8A95D3
:1038A000D2F740955095609570958091C90190919F
:1038B000CA01A091CB01B091CC01482359236A23BE
:1038C0007B23CB01BA010C940B1C41E050E060E07B
:1038D00070E004C0440F551F661F771F8A95D2F70A
:1038E0008091C9019091CA01A091CB01B091CC0106
:1038F000482759276A277B27CB01BA010C940B1C58
:103900000F931F930091C9011091CA012091CB011F
:103910003091CC01602B712B822B932B1F910F9137
:103920000C940B1C0F931F930091C9011091CA01B5
:103930002091CB013091CC0160237123822393230A
:103940001F910F910C940B1C0F931F930091C901B1
:103950001091CA012091CB013091CC0160277127D1
:10396000822793271F910F910C940B1C08952AE036
:10397000929F800D1124482F469546954695877055
:10398000B1E001C0BB0F8A95EAF785E0489FA0012E
:10399000112440555E4F80E090E070E0FA01E80F9E
:1039A000F91FA0819B01082E02C0369527950A9425
:1039B000E2F72170332721952A272B232A272083FA
:1039C00001968530910551F708952AE0929F800D68
:1039D0001124682F669566956695982F977085E0F7
:1039E000689FB001112460557E4F40E050E080E0B8
:1039F000FB01E40FF51F208130E0092E02C036954F
:103A000027950A94E2F721703327042E01C0220F74
:103A10000A94EAF7822B4F5F5F4F4530510541F71B
:103A20000895CF92DF92EF92FF920F931F93CF935F
:103A3000DF93EC01C090CD01D090CE01E090CF019A
:103A4000F090D0018091C9019091CA01A091CB0161
:103A5000B091CC01C82AD92AEA2AFB2A0FE110E04A
:103A6000B701A601002E04C0769567955795479536
:103A70000A94D2F740FD05C00150110988F780E093
:103A800007C0BE01802F0E945C070197A9F3802F19
:103A9000DF91CF911F910F91FF90EF90DF90CF902A
:103AA0000895CF93DF93EC010E94111DBE010E9487
:103AB0005C07DF91CF9108951F93CF93DF93EB01C4
:103AC00090917701992321F0CB010E94511D13C0E1
:103AD000882349F0CB010E94111D182F682FCE01B9
:103AE0000E94B71C04C0CB010E94E51C182FBE0128
:103AF000812F0E945C07DF91CF911F9108958091E3
:103B0000D10185958595859508958091D10187701E
:103B1000089598E0899F90011124622B6093D10150
:103B20000C942B1C4091D101809584238093D1016A
:103B3000982F977069F450E0282F332727FD309590
:103B40004217530729F08595859585950C94461C59
:103B500008959091D101977081E009F480E0089573
:103B6000E0910D01F0910E018091F5018083E091CB
:103B70000D01F0910E0180819091F401892B8083D9
:103B8000E0910D01F0910E0180819091F301892B5C
:103B900080839091D201992381F0E0910D01F09101
:103BA0000E018081892B808380910D0190910E01FF
:103BB0000E949A1E81111092D20180910D01909164
:103BC0000E010C94A0128091F50108959091F501D9
:103BD000982B9093F501089580959091F501982385
:103BE0009093F50108951092F50108959091F401D4
:103BF000982B9093F401089580959091F401982367
:103C00009093F40108951092F40108959091F301B6
:103C1000982B9093F301089580959091F301982348
:103C20009093F30108951092F30108958093D201C7
:103C300008951092D20108958091D20108956FEFF6
:103C40007FEF80E090E00C94E62C80E090E00E9412
:103C5000C22C21E08D3E9E4F09F020E0822F089576
:103C600082E090E00C94B42C83E090E00C94B42CAF
:103C7000682F83E090E00C94C82C84E090E00C94D2
:103C8000B42C682F84E090E00C94C82CAB01BC01EC
:103C90008FE090E00C94DA2CAB01BC0183E190E062
:103CA0000C94DA2C60E070E0CB010C944C1E60E0C8
:103CB00070E0CB010E94461E0C94521E6DEE7EEF0A
:103CC00080E090E00E94E62C60E082E090E00E94BC
:103CD000C82C60E083E090E00E94C82C1092CD01D7
:103CE0001092CE011092CF011092D00160E084E0DA
:103CF00090E00E94C82C60E085E090E00E94C82C13
:103D000060E086E090E00E94C82C6FEF87E090E0D2
:103D10000E94C82C40E050E0BA0188E090E00E9488
:103D2000DA2C60E08DE090E00E94C82C0C94571EC5
:103D30000C945E1E029620911F01211102C026E004
:103D400005C02091A90227FFFACF2EE1FC0180E0F7
:103D5000215028F091919923D9F38F5FF9CF0895DD
:103D600020E030E04FEFFC01E20FF31F52815617C5
:103D700099F04F3F19F4511101C0422F2F5F3F4F6F
:103D80002630310581F74F3F39F0FC01E40FF11D7A
:103D900047FDFA9562830895089520E030E0FC0124
:103DA000E20FF31F4281461301C012822F5F3F4F83
:103DB00026303105A1F70895262F269526952695BC
:103DC0002E3170F4FC01E20FF11D677021E030E04C
:103DD000062E01C0220F0A94EAF78281822B828389
:103DE0000895262F2695269526952E3178F4FC01E8
:103DF000E20FF11D677021E030E0062E01C0220FB6
:103E00000A94EAF72095828128232283089520913D
:103E10001F01222329F02091A90227FD0C94DC1E0A
:103E20000C94B01E20911F01222329F02091A90299
:103E300027FD0C94F11E0C94CD1E20911F01FC0156
:103E40003296222331F08091A90287FF02C08EE1D1
:103E500001C086E0DF011D928A95E9F70895089573
:103E60000C942F1F0E94301F8091AF02843031F1DB
:103E70001092F70120E488E190E00FB6F894A8953D
:103E8000809360000FBE2093600080E00E94570482
:103E90000E94301F83B7817F846083BF83B78160B6
:103EA00083BF7894889583B78E7F83BF88E10FB6F0
:103EB000F89480936000109260000FBE08950895FA
:103EC0000895CF930E945F1F0E94020A0E94601F04
:103ED000C0E08C2F0E94D10A892B29F4CF5FC43017
:103EE000C1F780E001C081E0CF91089508950C945E
:103EF000761F0E94BA170E9494120E9457040C94D5
:103F0000771F1F920F920FB60F9211248F939F93DA
:103F1000AF93BF938091F701811113C08091A502E7
:103F20009091A602A091A702B091A8024196A11D6E
:103F3000B11D8093A5029093A602A093A702B0930F
:103F4000A802BF91AF919F918F910F900FBE0F90DC
:103F50001F90189582E084BD93E095BD9AEF97BDC0
:103F600080936E0008952FB7F8948091A5029091E8
:103F7000A602A091A702B091A8022FBF0895CF92E8
:103F8000DF92EF92FF920F931F932FB7F894409117
:103F9000A5025091A6026091A7027091A8022FBFBE
:103FA0006A017B01EE24FF248C0120E030E0C01682
:103FB000D106E206F30610F441505109481B590B93
:103FC000CA011F910F91FF90EF90DF90CF9008955D
:103FD00078941F920F920FB60F9211248F939F9394
:103FE000AF93BF938091A5029091A602A091A702E2
:103FF000B091A8020196A11DB11D8093A5029093D6
:10400000A602A093A702B093A802BF91AF919F917F
:104010008F910F900FBE0F901F90189587E797E72D
:1040200090930108809300082AE088E190E00FB6A1
:10403000F894A895809360000FBE20936000FFCF96
:104040000E94251E811102C00E94981E0E94301EEF
:104050008093F6010E943D1E90E09093AA02809307
:10406000A9020E94341E682F70E080E090E00C945A
:10407000D11B8091FA0180FF0BC06091120185E095
:10408000689FB001112475956795759567952AC04D
:1040900081FF09C06091120185E0689FB001112481
:1040A000759567951FC082FF07C06091120185E07A
:1040B000689FB001112416C04091FB014423C9F050
:1040C00060911101461788F72091120185E0289F21
:1040D00090011124429FC001439F900D112470E074
:1040E0000E948D2C6038710540F46115710539F01E
:1040F00002C065E070E0862F08958FE7089581E0A3
:1041000008958091FA0180FF08C06091100170E06D
:10411000759567957595679521C081FF06C060917B
:10412000100170E07595679519C082FF04C0609119
:10413000100170E010C08091FB018823C1F06091F4
:104140000F018617A0F790911001989FC0011124CC
:1041500070E00E948D2C6038710528F4611571059E
:1041600021F0862F08958FE7089581E0089561E09A
:1041700070E0F4CF803F21F40E943920819504C083
:10418000813F29F40E9439208093FF010895823FE6
:1041900021F40E943920819504C0833F29F40E94B4
:1041A00039208093FE010895893F19F40E948120EF
:1041B00005C08A3F31F40E948120819580930002DE
:1041C00008958B3F21F40E948120819504C08C3F8B
:1041D00029F40E948120809301020895843F21F4F4
:1041E0008091FD01816017C0853F21F48091FD0120
:1041F000826011C0863F21F48091FD0184600BC074
:10420000873F21F48091FD01886005C0883F31F42B
:104210008091FD0180618093FD0108958D3F21F41F
:104220008091FA0181600BC08E3F21F48091FA01E8
:10423000826005C08F3F29F48091FA0184608093E9
:10424000FA010895803F39F48091FF0187FF6CC027
:104250001092FF0169C0813F29F48091FF01181677
:10426000BCF362C09091FE01823F29F497FF5CC0CD
:104270001092FE0159C0833F19F41916CCF354C0B3
:10428000893F41F48091000218160CF04DC0109245
:1042900000024AC08A3F29F48091000287FF44C08F
:1042A000F6CF8B3F39F48091010287FF3DC0109219
:1042B00001023AC08C3F29F4809101021816BCF328
:1042C00033C0843F21F48091FD018E7F17C0853F6C
:1042D00021F48091FD018D7F11C0863F21F48091F2
:1042E000FD018B7F0BC0873F21F48091FD01877F0B
:1042F00005C0883F31F48091FD018F7E8093FD01E0
:1043000013C08D3F21F48091FA018E7F0BC08E3F48
:1043100021F48091FA018D7F05C08F3F29F48091AF
:10432000FA018B7F8093FA018091FE0181110EC00A
:104330008091FF0181110AC080910002811106C0A5
:1043400080910102811102C01092FB0108958CEF4F
:1043500091E00E94BA120E94B31F9093F9018093DA
:10436000F80108951F93CF93DF938091F801909106
:10437000F9010E94BF1F4091FB01442321F02091CD
:10438000130130E006C0209114015AE0259F9001EE
:1043900011248217930708F475C08091FE011091D3
:1043A000FF01D0910002C0910102811107C01111DB
:1043B00005C0D11103C0CC2309F464C04F3F19F0EC
:1043C0004F5F4093FB01181624F40E94392080931C
:1043D000FE018091FE0187FF05C00E943920819572
:1043E0008093FE01111624F40E9439208093FF016E
:1043F0008091FF0187FF05C00E943920819580933D
:10440000FF012091FE012223D1F04091FF014423BE
:10441000B1F055EB250390011124311102C081E068
:1044200001C0832F8093FE0125EB4203C0011124BC
:10443000911102C081E001C0892F8093FF011D16F8
:1044400024F40E948120809300028091000287FF63
:1044500005C00E9481208195809300021C1624F4DF
:104460000E948120809301028091010287FF05C094
:104470000E948120819580930102DF91CF911F914D
:104480000C94A721DF91CF911F910895ECEFF1E0FB
:1044900086E0DF011D928A95E9F71092FB011092E8
:1044A000FA0108958091220208950F931F93CF93EC
:1044B000DF9300D01F92CDB7DEB78C010E94BF24DE
:1044C000823011F0843021F584E089831B830A83D4
:1044D00082E08093E9008FEF9091E800815095FD94
:1044E00006C095ED9A95F1F700008111F5CF809106
:1044F000E80085FF0DC040E050E063E070E0CE01D1
:1045000001960E94DC248091E8008E778093E80079
:104510000F900F900F90DF91CF911F910F91089501
:10452000CF93DF9300D01F92CDB7DEB72091AF02BB
:10453000243031F523E02983805891099B838A83B5
:1045400082E08093E9008FEF9091E800815095FD23
:1045500006C095ED9A95F1F700008111F5CF809195
:10456000E80085FF0DC040E050E063E070E0CE0160
:1045700001960E94DC248091E8008E778093E80009
:104580000F900F900F90DF91CF910895CF93DF930D
:10459000EC010E94BF24823011F08430F9F482E0F3
:1045A0008093E9008FEF9091E800815095FD06C05F
:1045B00095ED9A95F1F700008111F5CF8091E80013
:1045C00085FF0CC040E050E066E070E0CE010E9444
:1045D000DC248091E8008E778093E800DF91CF9112
:1045E0000895CF93DF93EC010E94BF24823011F035
:1045F0008430D9F580911F01811103C068E081E00A
:1046000006C08091A90287FFF9CF60E282E0809323
:10461000E9008FEF9091E800815095FD06C095ED7F
:104620009A95F1F700008111F5CF8091E80085FFA0
:104630001CC080911F01811105C040E050E068E07E
:1046400070E003C070E040E050E0CE010E94DC2446
:104650008091E8008E778093E80080E2FE01A2E07E
:10466000B2E001900D928A95E1F7DF91CF91089524
:104670008091AE02811109C00E946E260E94CB2655
:104680008091E20084608093E20008951092AE026F
:104690000895089508950C94791F42E061EC81E03B
:1046A0000E94E82542E261EC82E00C94E8258091CA
:1046B000B102833009F45CC030F4813071F0823093
:1046C00009F495C008958A3009F481C08B3009F44B
:1046D00067C0893009F0A3C020C08091B002813A40
:1046E00009F09DC08091E800877F8093E800809169
:1046F000B4029091B502892B21F060E080E090E057
:1047000003C060E282E092E070E00E942525809183
:10471000E8008B778093E80008958091B0028132A1
:1047200009F07DC08091B4029091B502029708F023
:1047300076C08091E800877F8093E8008091E80050
:1047400082FD05C08091AF028111F8CF68C08091D1
:104750001F01882329F08091F1008B7F813021F4A3
:104760008091F100809322028091E8008B7753C002
:104770008091B002813A09F052C08091B4029091C8
:10478000B502892B09F04BC08091E800877F8093A8
:10479000E8008091E80080FFFCCF80911F0136C0C7
:1047A0008091B0028132D9F58091B4029091B50226
:1047B000892BA9F58091E800877F8093E8000E940B
:1047C0001D268091B20280931F010C94BA1780912C
:1047D000B002813221F58091E800877F8093E80064
:1047E0000E941D268091B302809323020895809138
:1047F000B002813AA1F48091E800877F8093E800BD
:104800008091E80080FFFCCF809123028093F1002B
:104810008091E8008E778093E8000C941D2608951F
:1048200084B7877F84BF88E10FB6F89480936000D7
:10483000109260000FBE80E88093610010926100CA
:104840000E94FC120E946E260E94CB268091E200FC
:1048500084608093E20078940E944E290E940213A3
:1048600085E191E00E948F128091AF02853069F45A
:104870000E94321F8091AD028823B1F30E94611F14
:10488000882391F30E94C624EFCF0E940A130E944E
:104890001912EACF0C944C24292F332723303105E9
:1048A000A9F06CF42130310509F441C02230310502
:1048B00009F042C08BE390E024E135E04BC02132A7
:1048C0003105F9F02232310539F136C099278130AE
:1048D000910571F02CF4892B79F5E0E1F5E00DC03C
:1048E0008230910541F0039739F5ECEDF4E005C015
:1048F000E8EFF4E002C0E2EEF4E0849190E09F0182
:1049000029C061157105E9F061307105A9F489E0EC
:1049100090E02FE335E01EC061157105B9F06130FC
:10492000710551F480EC90E021E635E013C082E19E
:1049300090E02FE435E00EC080E090E020E030E031
:1049400009C089E090E026E235E004C080E490E010
:1049500021E236E0FA013183208308950895CF9350
:10496000C82F0E94AE24C0932402CF910895809155
:10497000AF02843011F482E0089581E008958091BF
:104980002402811102C00C94B724089580E189BDEE
:1049900082E189BD09B400FEFDCF8091D8008F7DF2
:1049A0008093D8008091E00082608093E000809145
:1049B000E00081FDFCCF0895CF92DF92EF92FF924D
:1049C0000F931F93CF93DF937C018B01EA010E9429
:1049D0003E26811131C0209731F088819981081BD2
:1049E000190BE80EF91EC12CD12C0115110519F176
:1049F0008091E80085FD14C08091E8008E77809357
:104A0000E800209741F0888199818C0D9D1D998344
:104A1000888385E011C00E943E26882331F30CC0B4
:104A2000F70181917F018093F10001501109FFEF9F
:104A3000CF1ADF0ADACF80E0DF91CF911F910F917B
:104A4000FF90EF90DF90CF9008952091B6023091C3
:104A5000B7022617370748F06115710539F4209120
:104A6000E8002E772093E80001C0B901FC0120E0A6
:104A700061157105B9F18091AF02882309F440C036
:104A8000853009F43FC08091E80083FD3DC08091EE
:104A9000E80082FF06C08091E80082FF26C080E027
:104AA00008958091E80080FFE3CF2091F30080918A
:104AB000F20090E0922B6115710551F0883091055C
:104AC00038F421912093F100615071090196F3CFE0
:104AD00021E0089709F020E08091E8008E7780932C
:104AE000E800C6CF2111C7CFD6CF8091AF0288236F
:104AF00039F0853039F08091E80083FFCCCF04C0D5
:104B000082E0089583E0089581E008952091B6023F
:104B10003091B7022617370748F06115710539F44F
:104B20002091E8002E772093E80001C0B901FC0134
:104B300020E061157105C1F18091AF02882309F46D
:104B400041C0853009F440C08091E80083FD3EC03B
:104B50008091E80082FF06C08091E80082FF27C0B4
:104B600080E008958091E80080FFE3CF2091F3007A
:104B70008091F20090E0922B6115710559F0883018
:104B8000910540F424912093F10031966150710910
:104B90000196F2CF21E0089709F020E08091E8002B
:104BA0008E778093E800C5CF2111C6CFD5CF8091F5
:104BB000AF02882339F0853039F08091E80083FF17
:104BC000CBCF04C082E0089583E0089581E008958A
:104BD000982F973058F59093E900981739F0709115
:104BE000EC002091ED005091F00003C0242F762FAF
:104BF00050E021FF19C03091EB003E7F3093EB0075
:104C00003091ED003D7F3093ED003091EB0031604D
:104C10003093EB007093EC002093ED005093F00084
:104C20002091EE0027FF07C09F5FD3CF8F70809346
:104C3000E90081E0089580E008958091B00287FD49
:104C400005C08091E80080FF0EC012C08091E8008E
:104C500082FD05C08091AF028111F8CF0895809147
:104C6000E8008B7708C08091AF028111EACF0895E8
:104C70008091E8008E778093E80008958091E400A9
:104C80009091E50045E62091EC0020FF21C02091A5
:104C9000E80020FD21C02091AF02222389F02530B9
:104CA00089F02091EB0025FD0FC02091E4003091A8
:104CB000E5002817390739F3415041F0C901E3CF26
:104CC00082E0089583E0089581E0089584E00895E6
:104CD0002091E80022FFDFCF80E008950E94DC26CB
:104CE0000E94E426E0EEF0E0808181608083E8EDC0
:104CF000F0E080818F77808319BCA7EDB0E08C91C4
:104D00008E7F8C9380818F7E80831092AE02089577
:104D10000F931F93CF93DF930E94DC260E94E4261B
:104D2000C8EDD0E088818F77888388818068888308
:104D300088818F7D888319BC1092AF021092AB02DC
:104D40001092AD021092AC0200EE10E0F8018081EA
:104D50008B7F808388818160888342E060E080E08F
:104D60000E94E825E1EEF0E080818E7F8083E2EE14
:104D7000F0E0808181608083808188608083F80199
:104D800080818E7F8083888180618883DF91CF914D
:104D90001F910F910895E8EDF0E080818F7E808370
:104DA000E7EDF0E080818160808384E082BF81E074
:104DB0008093AE020C948826E8EDF0E080818E7F2F
:104DC00080831092E20008951092DA001092E100C0
:104DD00008951F920F920FB60F9211242F933F93B5
:104DE0004F935F936F937F938F939F93AF93BF93F3
:104DF000EF93FF938091E10082FF0BC08091E2006E
:104E000082FF07C08091E1008B7F8093E1000E94C8
:104E10004D298091DA0080FF1FC08091D80080FF6B
:104E20001BC08091DA008E7F8093DA008091D900D8
:104E300080FF0DC080E189BD82E189BD09B400FE1B
:104E4000FDCF81E08093AF020E94382305C019BCDA
:104E50001092AF020E9446238091E10080FF19C0AA
:104E60008091E20080FF15C08091E2008E7F8093E8
:104E7000E2008091E20080618093E2008091D8009E
:104E800080628093D80019BC85E08093AF020E94B5
:104E90004A238091E10084FF30C08091E20084FFCA
:104EA0002CC080E189BD82E189BD09B400FEFDCF3F
:104EB0008091D8008F7D8093D8008091E1008F7E13
:104EC0008093E1008091E2008F7E8093E2008091E8
:104ED000E20081608093E2008091AB02882311F0B0
:104EE00084E007C08091E30087FF02C083E001C037
:104EF00081E08093AF020E944B238091E10083FF09
:104F000029C08091E20083FF25C08091E100877F66
:104F10008093E10082E08093AF021092AB02809117
:104F2000E1008E7F8093E1008091E2008E7F80938C
:104F3000E2008091E20080618093E20042E060E064
:104F400080E00E94E8258091F00088608093F00066
:104F50000E944923FF91EF91BF91AF919F918F9153
:104F60007F916F915F914F913F912F910F900FBE65
:104F70000F901F9018951F920F920FB60F92112449
:104F80002F933F934F935F936F937F938F939F9351
:104F9000AF93BF93CF93EF93FF93C091E900CF708E
:104FA0008091EC001092E9008091F000877F80935F
:104FB000F00078940E94F7271092E9008091F000A9
:104FC00088608093F000C093E900FF91EF91CF914A
:104FD000BF91AF919F918F917F916F915F914F9111
:104FE0003F912F910F900FBE0F901F9018951F9318
:104FF000CF93DF93CDB7DEB7AA970FB6F894DEBF95
:105000000FBECDBFE0EBF2E08091F100819322E092
:10501000E83BF207C9F70E9457238091E80083FF1D
:1050200024C12091B0023091B102832F90E08A30E8
:10503000910508F01AC1FC01E556FF4F0C94A12C14
:10504000203821F0223809F010C108C08091AC024C
:105050009091AD02992389F082600FC08091B402D3
:105060008F70873008F001C18093E9008091EB00D8
:1050700085FB882780F91092E9009091E800977FDE
:105080009093E8008093F1001092F100CCC0822F41
:105090008D7F09F0EAC0222319F0223061F0E5C0CB
:1050A0008091B202813009F0E0C0333009F080E035
:1050B0008093AD022AC08091B202811126C0209156
:1050C000B4022F708FEF820F863008F0CEC020938D
:1050D000E9008091EB0080FF18C08091EB00333035
:1050E00011F4806210C080618093EB0081E090E059
:1050F00001C0880F2A95EAF78093EA001092EA002F
:105100008091EB0088608093EB001092E900809121
:10511000E800877F8093E8000E941D26A6C0211129
:10512000A4C01091B2021F778091E3008078812B98
:105130008093E3008091E800877F8093E8000E94DD
:105140001D268091E80080FFFCCF8091E3008068FD
:105150008093E300112311F083E001C082E080938B
:10516000AF0283C02058223008F07FC08091B20285
:105170009091B3028C3D23E0920779F583E08A8316
:105180008AE289834FB7F894DE01139620E03EE06F
:1051900051E2E32FF0E050935700E49120FF03C069
:1051A000E295EF703F5FEF708E2F90E0EA3010F0E5
:1051B000C79601C0C0968D939D932F5F243149F708
:1051C0004FBF8091E800877F8093E8006AE270E03B
:1051D000CE0101960E94252515C06091B402709100
:1051E000B502AE014F5F5F4F0E944A240097E9F17C
:1051F0002091E800277F2093E800BC0189819A81F3
:105200000E9486258091E8008B778093E8002DC06E
:10521000203859F58091E800877F8093E8008091DD
:10522000AB028093F1008091E8008E7773CF21115B
:105230001CC09091B2029230C0F48091E800877F48
:105240008093E8009093AB020E941D268091AB02F0
:10525000811104C08091E30087FF02C084E001C097
:1052600081E08093AF020E944D238091E80083FF8C
:105270000AC08091E800877F8093E8008091EB006E
:1052800080628093EB00AA960FB6F894DEBF0FBE43
:10529000CDBFDF91CF911F9108950895CF93809155
:1052A000AF028823B1F08091E9008F709091EC00FB
:1052B00090FF02C090E801C090E0C92FC82B109267
:1052C000E9008091E80083FD0E94F727CF70C0932A
:1052D000E900CF9108955058BB27AA270ED09EC150
:1052E0008FD130F094D120F031F49F3F11F41EF4AF
:1052F0005FC10EF4E095E7FB55C1E92FA0D180F323
:10530000BA17620773078407950718F071F49EF5C2
:10531000B8C10EF4E0950B2EBA2FA02D0B01B901E8
:1053200090010C01CA01A0011124FF27591B99F01B
:10533000593F50F4503E68F11A16F040A22F232F27
:10534000342F4427585FF3CF469537952795A79577
:10535000F0405395C9F77EF41F16BA0B620B730B1E
:10536000840BBAF09150A1F0FF0FBB1F661F771F8F
:10537000881FC2F70EC0BA0F621F731F841F48F444
:10538000879577956795B795F7959E3F08F0B3CFCA
:105390009395880F08F09927EE0F979587950895B4
:1053A0000CD03CC134D140F02BD130F021F45F3F20
:1053B00019F0F8C0511166C1FBC041D198F399238F
:1053C000C9F35523B1F3951B550BBB27AA276217C9
:1053D0007307840738F09F5F5F4F220F331F441F0E
:1053E000AA1FA9F333D00E2E3AF0E0E830D0915046
:1053F0005040E695001CCAF729D0FE2F27D0660F33
:10540000771F881FBB1F261737074807AB07B0E871
:1054100009F0BB0B802DBF01FF2793585F4F2AF087
:105420009E3F510568F0BEC02DC15F3FECF3983E32
:10543000DCF3869577956795B795F7959F5FC9F7E4
:10544000880F911D9695879597F90895E1E0660F6D
:10545000771F881FBB1F621773078407BA0720F0E6
:10546000621B730B840BBA0BEE1F88F7E09508954F
:1054700019F40EF097C005C19BC0E9D0C8F3963867
:10548000C0F707F80F92E8942BE33AEA48EB5FE79E
:105490007DD10F920F920F924DB75EB70F9235D11B
:1054A000EAE4F1E088D04F915F91EF91FF91E595AB
:1054B000EE1FFF1F49F0FE57E0684427EE0F441F20
:1054C000FA95E1F74195550BECD00F9007FEE0C03F
:1054D0000895BDD088F09F5790F0B92F9927B75104
:1054E000A0F0D1F0660F771F881F991F1AF0BA95A8
:1054F000C9F712C0B13081F0C4D0B1E00895C1C085
:10550000672F782F8827B85F39F0B93FCCF386959D
:1055100077956795B395D9F73EF4909580957095FA
:1055200061957F4F8F4F9F4F0895E89409C097FB77
:105530003EF490958095709561957F4F8F4F9F4F6A
:105540009923A9F0F92F96E9BB279395F6958795AE
:1055500077956795B795F111F8CFFAF4BB0F11F471
:1055600060FF1BC06F5F7F4F8F4F9F4F16C0882318
:1055700011F096E911C0772321F09EE8872F762F4E
:1055800005C0662371F096E8862F70E060E02AF08F
:105590009A95660F771F881FDAF7880F969587957B
:1055A00097F9089597F99F6780E870E060E00895A3
:1055B0009FEF80EC0895DF93CF931F930F93FF929B
:1055C000EF92DF927B018C01689405C0DA2EEF0127
:1055D000DBD0FE01E894A591259135914591559137
:1055E000AEF3EF018ADEFE019701A801DA9479F7A4
:1055F000DF90EF90FF900F911F91CF91DF91089571
:1056000000240A94161617061806090608950024A1
:105610000A9412161306140605060895092E03941B
:10562000000C11F4882352F0BB0F40F4BF2B11F48F
:1056300060FF04C06F5F7F4F8F4F9F4F089557FDEE
:105640009058440F551F59F05F3F71F04795880FF0
:1056500097FB991F61F09F3F79F087950895121687
:1056600013061406551FF2CF4695F1DF08C0161633
:1056700017061806991FF1CF8695710561050894E4
:105680000895E894BB2766277727CB0197F90895FB
:105690009B01AC0160E070E080E89FE381CE82CFA7
:1056A000D0C0D5DFE8F39923D9F3940F511DBBF394
:1056B0009150504094F059F0882332F0660F771FD4
:1056C000881F91505040C1F79E3F510544F7880F05
:1056D000911D9695879597F908955F3FACF0983E98
:1056E0009CF0BB27869577956795B79508F4B160D0
:1056F0009395C1F7BB0F58F711F460FFE8CF6F5FC8
:105700007F4F8F4F9F4FE3CFBDCFFA01DC01AA0F30
:10571000BB1F9B01AC01BF5728F422273327442726
:1057200050781FC0B75188F4AB2F002446953795A9
:105730002795011CA395D2F3002069F0220F331F97
:10574000441FB395DAF30DD0C6CD61307105A0E8E2
:105750008A07B94630F49B01AC0166277727882772
:105760009078309621F020833183428353830895CB
:105770000BD054CF45DF28F04ADF18F0952309F00D
:1057800011CF16CF11247ECF5ADFA0F3959FD1F30E
:10579000950F50E0551F629FF001729FBB27F00DDF
:1057A000B11D639FAA27F00DB11DAA1F649F662734
:1057B000B00DA11D661F829F2227B00DA11D621F83
:1057C000739FB00DA11D621F839FA00D611D221F3D
:1057D000749F3327A00D611D231F849F600D211D21
:1057E000822F762F6A2F11249F5750408AF0E1F0C4
:1057F00088234AF0EE0FFF1FBB1F661F771F881F0D
:1058000091505040A9F79E3F510570F0CBCE3ACF52
:105810005F3FECF3983EDCF3869577956795B795F7
:10582000F795E7959F5FC1F7FE2B880F911D969521
:10583000879597F908959F9313D00F9007FCEE5F1B
:1058400036C09F3F31F0915020F48795779567954A
:10585000B795880F911D9695879597F90895A8CECD
:10586000F6DEE8F3E894E0E0BB279F57F0F02AED7E
:105870003FE049EC06C0EE0FBB0F661F771F881F85
:1058800028F0B23A62077307840728F0B25A620B15
:10589000730B840BE3959A9572F7803830F49A95E0
:1058A000BB0F661F771F881FD2F79048CCCFEF93AE
:1058B000E0FF06C0A2EA2AED3FE049EC5FEB1DDD08
:1058C000ADDE0F90039401FC9058E2E7F1E000C0D8
:1058D0009F938F937F936F93FF93EF939B01AC0103
:1058E00047DFEF91FF9167DE2F913F914F915F91DD
:1058F0003FCFAA1BBB1B51E107C0AA1FBB1FA617A6
:10590000B70710F0A61BB70B881F991F5A95A9F768
:1059100080959095BC01CD01089597FB072E16F454
:10592000009407D077FD09D00E94792C07FC05D0A0
:105930003EF4909581959F4F0895709561957F4FA6
:105940000895EE0FFF1F0590F491E02D0994FC01DE
:105950004150504030F001900616D1F73197CF01F9
:105960000895882799270895F999FECF92BD81BDA2
:10597000F89A992780B50895A6E1B0E044E050E098
:105980000C94EE2CA8E1B0E042E050E00C94EE2C38
:10599000262FF999FECF92BD81BDF89A019700B4E8
:1059A000021639F01FBA20BD0FB6F894FA9AF99A88
:1059B0000FBE08950396272F0E94C92C0E94C82C61
:1059C000252F0E94C92C242F0C94C92C0196272F17
:1059D0000E94C92C0C94C82CDC01CB01FC01F99964
:1059E000FECF06C0F2BDE1BDF89A319600B40D922B
:0C59F00041505040B8F70895F894FFCFE4
:1059FC00010201191A1B1C1D1E1F202122D3012874
:105A0C0008140A321E5222F122C62290225522017B
:0E5A1C003534C697669490919293F7313332E9
:00000001FF
